{
  "address": "0x81a9f4D877f87300fFa28D2e76f12Ff7A227cb24",
  "abi": [
    {
      "inputs": [
        {
          "internalType": "address",
          "name": "_native",
          "type": "address"
        },
        {
          "internalType": "address",
          "name": "_feeAddress",
          "type": "address"
        },
        {
          "internalType": "address",
          "name": "_nativeWallet",
          "type": "address"
        },
        {
          "internalType": "uint256",
          "name": "_startBlock",
          "type": "uint256"
        }
      ],
      "stateMutability": "nonpayable",
      "type": "constructor"
    },
    {
      "anonymous": false,
      "inputs": [
        {
          "indexed": true,
          "internalType": "address",
          "name": "user",
          "type": "address"
        },
        {
          "indexed": true,
          "internalType": "uint256",
          "name": "pid",
          "type": "uint256"
        },
        {
          "indexed": false,
          "internalType": "uint256",
          "name": "amount",
          "type": "uint256"
        }
      ],
      "name": "Deposit",
      "type": "event"
    },
    {
      "anonymous": false,
      "inputs": [
        {
          "indexed": true,
          "internalType": "address",
          "name": "user",
          "type": "address"
        },
        {
          "indexed": true,
          "internalType": "uint256",
          "name": "pid",
          "type": "uint256"
        },
        {
          "indexed": false,
          "internalType": "uint256",
          "name": "amount",
          "type": "uint256"
        }
      ],
      "name": "EmergencyWithdraw",
      "type": "event"
    },
    {
      "anonymous": false,
      "inputs": [
        {
          "indexed": true,
          "internalType": "address",
          "name": "user",
          "type": "address"
        },
        {
          "indexed": false,
          "internalType": "bool",
          "name": "flag",
          "type": "bool"
        }
      ],
      "name": "NewMemberAdded",
      "type": "event"
    },
    {
      "anonymous": false,
      "inputs": [
        {
          "indexed": true,
          "internalType": "address",
          "name": "user",
          "type": "address"
        },
        {
          "indexed": false,
          "internalType": "bool",
          "name": "flag",
          "type": "bool"
        }
      ],
      "name": "NewMemberRemoved",
      "type": "event"
    },
    {
      "anonymous": false,
      "inputs": [
        {
          "indexed": true,
          "internalType": "address",
          "name": "previousOwner",
          "type": "address"
        },
        {
          "indexed": true,
          "internalType": "address",
          "name": "newOwner",
          "type": "address"
        }
      ],
      "name": "OwnershipTransferred",
      "type": "event"
    },
    {
      "anonymous": false,
      "inputs": [
        {
          "indexed": true,
          "internalType": "address",
          "name": "user",
          "type": "address"
        },
        {
          "indexed": true,
          "internalType": "address",
          "name": "newAddress",
          "type": "address"
        }
      ],
      "name": "SetFeeAddress",
      "type": "event"
    },
    {
      "anonymous": false,
      "inputs": [
        {
          "indexed": true,
          "internalType": "address",
          "name": "user",
          "type": "address"
        },
        {
          "indexed": false,
          "internalType": "uint256",
          "name": "nativePerBlock",
          "type": "uint256"
        }
      ],
      "name": "UpdateEmissionRate",
      "type": "event"
    },
    {
      "anonymous": false,
      "inputs": [
        {
          "indexed": true,
          "internalType": "address",
          "name": "user",
          "type": "address"
        },
        {
          "indexed": true,
          "internalType": "uint256",
          "name": "pid",
          "type": "uint256"
        },
        {
          "indexed": false,
          "internalType": "uint256",
          "name": "amount",
          "type": "uint256"
        }
      ],
      "name": "Withdraw",
      "type": "event"
    },
    {
      "inputs": [
        {
          "internalType": "uint256",
          "name": "_allocPoint",
          "type": "uint256"
        },
        {
          "internalType": "contract IERC20",
          "name": "_lpToken",
          "type": "address"
        },
        {
          "internalType": "uint16",
          "name": "_depositFeeBP",
          "type": "uint16"
        },
        {
          "internalType": "bool",
          "name": "_withUpdate",
          "type": "bool"
        }
      ],
      "name": "add",
      "outputs": [],
      "stateMutability": "nonpayable",
      "type": "function"
    },
    {
      "inputs": [
        {
          "internalType": "address",
          "name": "account",
          "type": "address"
        }
      ],
      "name": "addMember",
      "outputs": [],
      "stateMutability": "nonpayable",
      "type": "function"
    },
    {
      "inputs": [],
      "name": "blocksPerDay",
      "outputs": [
        {
          "internalType": "uint256",
          "name": "",
          "type": "uint256"
        }
      ],
      "stateMutability": "view",
      "type": "function"
    },
    {
      "inputs": [
        {
          "internalType": "uint256",
          "name": "_pid",
          "type": "uint256"
        },
        {
          "internalType": "uint256",
          "name": "_amount",
          "type": "uint256"
        }
      ],
      "name": "deposit",
      "outputs": [],
      "stateMutability": "nonpayable",
      "type": "function"
    },
    {
      "inputs": [
        {
          "internalType": "uint256",
          "name": "_pid",
          "type": "uint256"
        }
      ],
      "name": "emergencyWithdraw",
      "outputs": [],
      "stateMutability": "nonpayable",
      "type": "function"
    },
    {
      "inputs": [],
      "name": "endBlock",
      "outputs": [
        {
          "internalType": "uint256",
          "name": "",
          "type": "uint256"
        }
      ],
      "stateMutability": "view",
      "type": "function"
    },
    {
      "inputs": [],
      "name": "feeAddress",
      "outputs": [
        {
          "internalType": "address",
          "name": "",
          "type": "address"
        }
      ],
      "stateMutability": "view",
      "type": "function"
    },
    {
      "inputs": [
        {
          "internalType": "uint256",
          "name": "_from",
          "type": "uint256"
        },
        {
          "internalType": "uint256",
          "name": "_to",
          "type": "uint256"
        }
      ],
      "name": "getMultiplier",
      "outputs": [
        {
          "internalType": "uint256",
          "name": "",
          "type": "uint256"
        }
      ],
      "stateMutability": "view",
      "type": "function"
    },
    {
      "inputs": [],
      "name": "massUpdatePools",
      "outputs": [],
      "stateMutability": "nonpayable",
      "type": "function"
    },
    {
      "inputs": [
        {
          "internalType": "address",
          "name": "",
          "type": "address"
        }
      ],
      "name": "memberInfo",
      "outputs": [
        {
          "internalType": "bool",
          "name": "",
          "type": "bool"
        }
      ],
      "stateMutability": "view",
      "type": "function"
    },
    {
      "inputs": [],
      "name": "native",
      "outputs": [
        {
          "internalType": "address",
          "name": "",
          "type": "address"
        }
      ],
      "stateMutability": "view",
      "type": "function"
    },
    {
      "inputs": [],
      "name": "nativePerBlock",
      "outputs": [
        {
          "internalType": "uint256",
          "name": "",
          "type": "uint256"
        }
      ],
      "stateMutability": "view",
      "type": "function"
    },
    {
      "inputs": [],
      "name": "nativeWallet",
      "outputs": [
        {
          "internalType": "address",
          "name": "",
          "type": "address"
        }
      ],
      "stateMutability": "view",
      "type": "function"
    },
    {
      "inputs": [],
      "name": "owner",
      "outputs": [
        {
          "internalType": "address",
          "name": "",
          "type": "address"
        }
      ],
      "stateMutability": "view",
      "type": "function"
    },
    {
      "inputs": [
        {
          "internalType": "uint256",
          "name": "_pid",
          "type": "uint256"
        },
        {
          "internalType": "address",
          "name": "_user",
          "type": "address"
        }
      ],
      "name": "pendingNative",
      "outputs": [
        {
          "internalType": "uint256",
          "name": "",
          "type": "uint256"
        }
      ],
      "stateMutability": "view",
      "type": "function"
    },
    {
      "inputs": [
        {
          "internalType": "uint256",
          "name": "",
          "type": "uint256"
        }
      ],
      "name": "poolInfo",
      "outputs": [
        {
          "internalType": "contract IERC20",
          "name": "lpToken",
          "type": "address"
        },
        {
          "internalType": "uint256",
          "name": "allocPoint",
          "type": "uint256"
        },
        {
          "internalType": "uint256",
          "name": "lastRewardBlock",
          "type": "uint256"
        },
        {
          "internalType": "uint256",
          "name": "accNativePerShare",
          "type": "uint256"
        },
        {
          "internalType": "uint16",
          "name": "depositFeeBP",
          "type": "uint16"
        }
      ],
      "stateMutability": "view",
      "type": "function"
    },
    {
      "inputs": [],
      "name": "poolLength",
      "outputs": [
        {
          "internalType": "uint256",
          "name": "",
          "type": "uint256"
        }
      ],
      "stateMutability": "view",
      "type": "function"
    },
    {
      "inputs": [
        {
          "internalType": "address",
          "name": "account",
          "type": "address"
        }
      ],
      "name": "removeMember",
      "outputs": [],
      "stateMutability": "nonpayable",
      "type": "function"
    },
    {
      "inputs": [],
      "name": "renounceOwnership",
      "outputs": [],
      "stateMutability": "nonpayable",
      "type": "function"
    },
    {
      "inputs": [
        {
          "internalType": "uint256",
          "name": "_pid",
          "type": "uint256"
        },
        {
          "internalType": "uint256",
          "name": "_allocPoint",
          "type": "uint256"
        },
        {
          "internalType": "uint16",
          "name": "_depositFeeBP",
          "type": "uint16"
        },
        {
          "internalType": "bool",
          "name": "_withUpdate",
          "type": "bool"
        }
      ],
      "name": "set",
      "outputs": [],
      "stateMutability": "nonpayable",
      "type": "function"
    },
    {
      "inputs": [
        {
          "internalType": "address",
          "name": "_feeAddress",
          "type": "address"
        }
      ],
      "name": "setFeeAddress",
      "outputs": [],
      "stateMutability": "nonpayable",
      "type": "function"
    },
    {
      "inputs": [],
      "name": "startBlock",
      "outputs": [
        {
          "internalType": "uint256",
          "name": "",
          "type": "uint256"
        }
      ],
      "stateMutability": "view",
      "type": "function"
    },
    {
      "inputs": [],
      "name": "totalAllocPoint",
      "outputs": [
        {
          "internalType": "uint256",
          "name": "",
          "type": "uint256"
        }
      ],
      "stateMutability": "view",
      "type": "function"
    },
    {
      "inputs": [
        {
          "internalType": "address",
          "name": "newOwner",
          "type": "address"
        }
      ],
      "name": "transferOwnership",
      "outputs": [],
      "stateMutability": "nonpayable",
      "type": "function"
    },
    {
      "inputs": [
        {
          "internalType": "uint256",
          "name": "_nativePerBlock",
          "type": "uint256"
        }
      ],
      "name": "updateEmissionRate",
      "outputs": [],
      "stateMutability": "nonpayable",
      "type": "function"
    },
    {
      "inputs": [
        {
          "internalType": "uint256",
          "name": "_pid",
          "type": "uint256"
        }
      ],
      "name": "updatePool",
      "outputs": [],
      "stateMutability": "nonpayable",
      "type": "function"
    },
    {
      "inputs": [
        {
          "internalType": "uint256",
          "name": "",
          "type": "uint256"
        },
        {
          "internalType": "address",
          "name": "",
          "type": "address"
        }
      ],
      "name": "userInfo",
      "outputs": [
        {
          "internalType": "uint256",
          "name": "amount",
          "type": "uint256"
        },
        {
          "internalType": "uint256",
          "name": "rewardDebt",
          "type": "uint256"
        }
      ],
      "stateMutability": "view",
      "type": "function"
    },
    {
      "inputs": [
        {
          "internalType": "uint256",
          "name": "_pid",
          "type": "uint256"
        },
        {
          "internalType": "uint256",
          "name": "_amount",
          "type": "uint256"
        }
      ],
      "name": "withdraw",
      "outputs": [],
      "stateMutability": "nonpayable",
      "type": "function"
    }
  ],
  "transactionHash": "0xba9dfb4d051fc39bec1a07f8ae1269a82b03e82b5ca0d6f753be17d8cbbd73a3",
  "args": [
    "0xF615F62c37848092334BB399002AC2897Ab5c0c5",
    "0x98911a83795099e63608600788bBE777D7e71E0A",
    "0x2d97A45D32669bC5a043eC8D33C40fF7858D3607",
    "0"
  ],
  "solcInputHash": "354ab0f52f76e2108359dda1b80f3005",
  "bytecode": "0x60806040526741eb63d55b1b00006004556000600955617080600c553480156200002857600080fd5b50604051620021bf380380620021bf833981810160405260808110156200004e57600080fd5b508051602082015160408301516060909301519192909160006200007162000149565b600080546001600160a01b0319166001600160a01b0383169081178255604051929350917f8be0079c531659141344cd1fd0a4f28419497f9722a3daafe3b4186f6b6457e0908290a35060018055600280546001600160a01b03199081166001600160a01b0387811691909117909255600580548216868416179055600a83905560038054909116918416919091179055600c546200013b90620001249061016d6200014d602090811b6200176517901c565b600a54620001b460201b620017be1790919060201c565b600b55506200020f92505050565b3390565b6000826200015e57506000620001ae565b828202828482816200016c57fe5b0414620001ab5760405162461bcd60e51b81526004018080602001828103825260218152602001806200219e6021913960400191505060405180910390fd5b90505b92915050565b600082820183811015620001ab576040805162461bcd60e51b815260206004820152601b60248201527f536166654d6174683a206164646974696f6e206f766572666c6f770000000000604482015290519081900360640190fd5b611f7f806200021f6000396000f3fe608060405234801561001057600080fd5b50600436106101c45760003560e01c8063630b5ba1116100f9578063a313c37111610097578063d963842211610071578063d96384221461047b578063e2bbb158146104b0578063f2fde38b146104d3578063fa3b627b146104f9576101c4565b8063a313c37114610413578063b1a48be91461044d578063ca6d56dc14610455576101c4565b80638705fcd4116100d35780638705fcd41461037d5780638da5cb5b146103a35780638dbb1e3a146103ab57806393f1a40b146103ce576101c4565b8063630b5ba11461032f578063715018a61461033757806384e82a331461033f576101c4565b80632b1072e81161016657806348cd4cb11161014057806348cd4cb1146102e55780634cfea68a146102ed57806351eb05a6146102f55780635312ea8e14610312576101c4565b80632b1072e8146102b257806341275358146102ba578063441a3e70146102c2576101c4565b80630ba84cd2116101a25780630ba84cd21461021357806311b0b42d146102305780631526fe271461025457806317caf6f1146102aa576101c4565b8063081e3eda146101c9578063083c6323146101e35780630b1ca49a146101eb575b600080fd5b6101d1610525565b60408051918252519081900360200190f35b6101d161052b565b6102116004803603602081101561020157600080fd5b50356001600160a01b0316610531565b005b6102116004803603602081101561022957600080fd5b50356105ec565b610238610694565b604080516001600160a01b039092168252519081900360200190f35b6102716004803603602081101561026a57600080fd5b50356106a3565b604080516001600160a01b039096168652602086019490945284840192909252606084015261ffff166080830152519081900360a00190f35b6101d16106ef565b6102386106f5565b610238610704565b610211600480360360408110156102d857600080fd5b5080359060200135610713565b6101d161094d565b6101d1610953565b6102116004803603602081101561030b57600080fd5b5035610959565b6102116004803603602081101561032857600080fd5b5035610b24565b610211610c9b565b610211610cbe565b6102116004803603608081101561035557600080fd5b508035906001600160a01b036020820135169061ffff60408201351690606001351515610d6a565b6102116004803603602081101561039357600080fd5b50356001600160a01b0316610f78565b610238611023565b6101d1600480360360408110156103c157600080fd5b5080359060200135611032565b6103fa600480360360408110156103e457600080fd5b50803590602001356001600160a01b0316611059565b6040805192835260208301919091528051918290030190f35b6104396004803603602081101561042957600080fd5b50356001600160a01b031661107d565b604080519115158252519081900360200190f35b6101d1611092565b6102116004803603602081101561046b57600080fd5b50356001600160a01b0316611098565b6102116004803603608081101561049157600080fd5b5080359060208101359061ffff60408201351690606001351515611158565b610211600480360360408110156104c657600080fd5b50803590602001356112b2565b610211600480360360208110156104e957600080fd5b50356001600160a01b0316611505565b6101d16004803603604081101561050f57600080fd5b50803590602001356001600160a01b0316611607565b60065490565b600b5481565b610539611818565b6001600160a01b031661054a611023565b6001600160a01b031614610593576040805162461bcd60e51b81526020600482018190526024820152600080516020611f00833981519152604482015290519081900360640190fd5b6001600160a01b038116600081815260086020908152604091829020805460ff1916905581516001815291517fa3b39c98702112baead39500bb425445cb7dc404a1a387b29e959e2014aaae659281900390910190a250565b6105f4611818565b6001600160a01b0316610605611023565b6001600160a01b03161461064e576040805162461bcd60e51b81526020600482018190526024820152600080516020611f00833981519152604482015290519081900360640190fd5b610656610c9b565b600481905560408051828152905133917fe2492e003bbe8afa53088b406f0c1cb5d9e280370fc72a74cf116ffd343c4053919081900360200190a250565b6002546001600160a01b031681565b600681815481106106b057fe5b6000918252602090912060059091020180546001820154600283015460038401546004909401546001600160a01b0390931694509092909161ffff1685565b60095481565b6003546001600160a01b031681565b6005546001600160a01b031681565b6002600154141561076b576040805162461bcd60e51b815260206004820152601f60248201527f5265656e7472616e637947756172643a207265656e7472616e742063616c6c00604482015290519081900360640190fd5b60026001556008600061077c611818565b6001600160a01b0316815260208101919091526040016000205460ff166107ea576040805162461bcd60e51b815260206004820152601e60248201527f4f776e61626c653a2063616c6c65722069736e27742061206d656d6265720000604482015290519081900360640190fd5b6000600683815481106107f957fe5b60009182526020808320868452600782526040808520338652909252922080546005909202909201925083111561086c576040805162461bcd60e51b81526020600482015260126024820152711dda5d1a191c985dce881b9bdd0819dbdbd960721b604482015290519081900360640190fd5b61087584610959565b60006108af82600101546108a964e8d4a510006108a38760030154876000015461176590919063ffffffff16565b9061181c565b90611883565b905080156108c1576108c133826118e0565b83156108eb5781546108d39085611883565b825582546108eb906001600160a01b03163386611ab3565b600383015482546109069164e8d4a51000916108a391611765565b6001830155604080518581529051869133917ff279e6a1f5e320cca91135676d9cb6e44ca8a08c0b88342bcdb1144f6511b5689181900360200190a3505060018055505050565b600a5481565b600c5481565b60006006828154811061096857fe5b90600052602060002090600502019050806002015443116109895750610b21565b8054604080516370a0823160e01b815230600482015290516000926001600160a01b0316916370a08231916024808301926020929190829003018186803b1580156109d357600080fd5b505afa1580156109e7573d6000803e3d6000fd5b505050506040513d60208110156109fd57600080fd5b50519050801580610a1057506001820154155b15610a22575043600290910155610b21565b6000610a32836002015443611032565b90506000610a5f6009546108a38660010154610a596004548761176590919063ffffffff16565b90611765565b600254600354604080516323b872dd60e01b81526001600160a01b0392831660048201523060248201526044810185905290519394509116916323b872dd916064808201926020929091908290030181600087803b158015610ac057600080fd5b505af1158015610ad4573d6000803e3d6000fd5b505050506040513d6020811015610aea57600080fd5b50610b0e9050610b03846108a38464e8d4a51000611765565b6003860154906117be565b6003850155505043600290920191909155505b50565b60026001541415610b7c576040805162461bcd60e51b815260206004820152601f60248201527f5265656e7472616e637947756172643a207265656e7472616e742063616c6c00604482015290519081900360640190fd5b600260015560086000610b8d611818565b6001600160a01b0316815260208101919091526040016000205460ff16610bfb576040805162461bcd60e51b815260206004820152601e60248201527f4f776e61626c653a2063616c6c65722069736e27742061206d656d6265720000604482015290519081900360640190fd5b600060068281548110610c0a57fe5b600091825260208083208584526007825260408085203380875293528420805485825560018201959095556005909302018054909450919291610c5a916001600160a01b03919091169083611ab3565b604080518281529051859133917fbb757047c2b5f3974fe26b7c10f732e7bce710b0952a71082702781e62ae05959181900360200190a35050600180555050565b60065460005b81811015610cba57610cb281610959565b600101610ca1565b5050565b610cc6611818565b6001600160a01b0316610cd7611023565b6001600160a01b031614610d20576040805162461bcd60e51b81526020600482018190526024820152600080516020611f00833981519152604482015290519081900360640190fd5b600080546040516001600160a01b03909116907f8be0079c531659141344cd1fd0a4f28419497f9722a3daafe3b4186f6b6457e0908390a3600080546001600160a01b0319169055565b610d72611818565b6001600160a01b0316610d83611023565b6001600160a01b031614610dcc576040805162461bcd60e51b81526020600482018190526024820152600080516020611f00833981519152604482015290519081900360640190fd5b6127108261ffff161115610e115760405162461bcd60e51b8152600401808060200182810382526025815260200180611e266025913960400191505060405180910390fd5b8015610e1f57610e1f610c9b565b6000600a544311610e3257600a54610e34565b435b600954909150610e4490866117be565b6009556040805160a0810182526001600160a01b0395861681526020810196875290810191825260006060820181815261ffff9586166080840190815260068054600181018255935292517ff652222313e28459528d920b65115c16c04f3efc82aaedc97be59f3f377c0d3f600590930292830180546001600160a01b031916919098161790965595517ff652222313e28459528d920b65115c16c04f3efc82aaedc97be59f3f377c0d4087015590517ff652222313e28459528d920b65115c16c04f3efc82aaedc97be59f3f377c0d4186015592517ff652222313e28459528d920b65115c16c04f3efc82aaedc97be59f3f377c0d428501555090517ff652222313e28459528d920b65115c16c04f3efc82aaedc97be59f3f377c0d43909201805461ffff191692909116919091179055565b6005546001600160a01b03163314610fd7576040805162461bcd60e51b815260206004820152601860248201527f736574466565416464726573733a20464f5242494444454e0000000000000000604482015290519081900360640190fd5b600580546001600160a01b0319166001600160a01b03831690811790915560405133907fd44190acf9d04bdb5d3a1aafff7e6dee8b40b93dfb8c5d3f0eea4b9f4539c3f790600090a350565b6000546001600160a01b031690565b6000600b5443111561104657506000611053565b6110508284611883565b90505b92915050565b60076020908152600092835260408084209091529082529020805460019091015482565b60086020526000908152604090205460ff1681565b60045481565b6110a0611818565b6001600160a01b03166110b1611023565b6001600160a01b0316146110fa576040805162461bcd60e51b81526020600482018190526024820152600080516020611f00833981519152604482015290519081900360640190fd5b6001600160a01b038116600081815260086020908152604091829020805460ff19166001908117909155825190815291517f825f44e17b8724eb3f380cd38fe5308ee5783cc9afa2585a8b9345c53978c17e9281900390910190a250565b611160611818565b6001600160a01b0316611171611023565b6001600160a01b0316146111ba576040805162461bcd60e51b81526020600482018190526024820152600080516020611f00833981519152604482015290519081900360640190fd5b6127108261ffff1611156111ff5760405162461bcd60e51b8152600401808060200182810382526025815260200180611edb6025913960400191505060405180910390fd5b801561120d5761120d610c9b565b61124a836112446006878154811061122157fe5b90600052602060002090600502016001015460095461188390919063ffffffff16565b906117be565b600981905550826006858154811061125e57fe5b906000526020600020906005020160010181905550816006858154811061128157fe5b906000526020600020906005020160040160006101000a81548161ffff021916908361ffff16021790555050505050565b6002600154141561130a576040805162461bcd60e51b815260206004820152601f60248201527f5265656e7472616e637947756172643a207265656e7472616e742063616c6c00604482015290519081900360640190fd5b60026001556008600061131b611818565b6001600160a01b0316815260208101919091526040016000205460ff16611389576040805162461bcd60e51b815260206004820152601e60248201527f4f776e61626c653a2063616c6c65722069736e27742061206d656d6265720000604482015290519081900360640190fd5b60006006838154811061139857fe5b600091825260208083208684526007825260408085203386529092529220600590910290910191506113c984610959565b8054156114125760006113fe82600101546108a964e8d4a510006108a38760030154876000015461176590919063ffffffff16565b905080156114105761141033826118e0565b505b82156114a457815461142f906001600160a01b0316333086611b0a565b600482015461ffff161561149557600482015460009061145c90612710906108a390879061ffff16611765565b600554845491925061147b916001600160a01b03908116911683611ab3565b815461148d9082906108a990876117be565b8255506114a4565b80546114a190846117be565b81555b600382015481546114bf9164e8d4a51000916108a391611765565b6001820155604080518481529051859133917f90890809c654f11d6e72a28fa60149770a0d11ec6c92319d6ceb2bb0a4ea1a159181900360200190a35050600180555050565b61150d611818565b6001600160a01b031661151e611023565b6001600160a01b031614611567576040805162461bcd60e51b81526020600482018190526024820152600080516020611f00833981519152604482015290519081900360640190fd5b6001600160a01b0381166115ac5760405162461bcd60e51b8152600401808060200182810382526026815260200180611e4b6026913960400191505060405180910390fd5b600080546040516001600160a01b03808516939216917f8be0079c531659141344cd1fd0a4f28419497f9722a3daafe3b4186f6b6457e091a3600080546001600160a01b0319166001600160a01b0392909216919091179055565b6000806006848154811061161757fe5b600091825260208083208784526007825260408085206001600160a01b0389811687529084528186206005959095029092016003810154815483516370a0823160e01b815230600482015293519298509596909590949316926370a082319260248082019391829003018186803b15801561169157600080fd5b505afa1580156116a5573d6000803e3d6000fd5b505050506040513d60208110156116bb57600080fd5b50516002850154909150431180156116d257508015155b156117325760006116e7856002015443611032565b9050600061170e6009546108a38860010154610a596004548761176590919063ffffffff16565b905061172d611726846108a38464e8d4a51000611765565b85906117be565b935050505b61175a83600101546108a964e8d4a510006108a386886000015461176590919063ffffffff16565b979650505050505050565b60008261177457506000611053565b8282028284828161178157fe5b04146110505760405162461bcd60e51b8152600401808060200182810382526021815260200180611eba6021913960400191505060405180910390fd5b600082820183811015611050576040805162461bcd60e51b815260206004820152601b60248201527f536166654d6174683a206164646974696f6e206f766572666c6f770000000000604482015290519081900360640190fd5b3390565b6000808211611872576040805162461bcd60e51b815260206004820152601a60248201527f536166654d6174683a206469766973696f6e206279207a65726f000000000000604482015290519081900360640190fd5b81838161187b57fe5b049392505050565b6000828211156118da576040805162461bcd60e51b815260206004820152601e60248201527f536166654d6174683a207375627472616374696f6e206f766572666c6f770000604482015290519081900360640190fd5b50900390565b600254604080516370a0823160e01b815230600482015290516000926001600160a01b0316916370a08231916024808301926020929190829003018186803b15801561192b57600080fd5b505afa15801561193f573d6000803e3d6000fd5b505050506040513d602081101561195557600080fd5b505190506000818311156119ec576002546040805163a9059cbb60e01b81526001600160a01b038781166004830152602482018690529151919092169163a9059cbb9160448083019260209291908290030181600087803b1580156119b957600080fd5b505af11580156119cd573d6000803e3d6000fd5b505050506040513d60208110156119e357600080fd5b50519050611a71565b6002546040805163a9059cbb60e01b81526001600160a01b038781166004830152602482018790529151919092169163a9059cbb9160448083019260209291908290030181600087803b158015611a4257600080fd5b505af1158015611a56573d6000803e3d6000fd5b505050506040513d6020811015611a6c57600080fd5b505190505b80611aad5760405162461bcd60e51b8152600401808060200182810382526023815260200180611e716023913960400191505060405180910390fd5b50505050565b604080516001600160a01b038416602482015260448082018490528251808303909101815260649091019091526020810180516001600160e01b031663a9059cbb60e01b179052611b05908490611b60565b505050565b604080516001600160a01b0380861660248301528416604482015260648082018490528251808303909101815260849091019091526020810180516001600160e01b03166323b872dd60e01b179052611aad9085905b6060611bb5826040518060400160405280602081526020017f5361666545524332303a206c6f772d6c6576656c2063616c6c206661696c6564815250856001600160a01b0316611c119092919063ffffffff16565b805190915015611b0557808060200190516020811015611bd457600080fd5b5051611b055760405162461bcd60e51b815260040180806020018281038252602a815260200180611f20602a913960400191505060405180910390fd5b6060611c208484600085611c2a565b90505b9392505050565b606082471015611c6b5760405162461bcd60e51b8152600401808060200182810382526026815260200180611e946026913960400191505060405180910390fd5b611c7485611d7b565b611cc5576040805162461bcd60e51b815260206004820152601d60248201527f416464726573733a2063616c6c20746f206e6f6e2d636f6e7472616374000000604482015290519081900360640190fd5b60006060866001600160a01b031685876040518082805190602001908083835b60208310611d045780518252601f199092019160209182019101611ce5565b6001836020036101000a03801982511681845116808217855250505050505090500191505060006040518083038185875af1925050503d8060008114611d66576040519150601f19603f3d011682016040523d82523d6000602084013e611d6b565b606091505b509150915061175a828286611d81565b3b151590565b60608315611d90575081611c23565b825115611da05782518084602001fd5b8160405162461bcd60e51b81526004018080602001828103825283818151815260200191508051906020019080838360005b83811015611dea578181015183820152602001611dd2565b50505050905090810190601f168015611e175780820380516001836020036101000a031916815260200191505b509250505060405180910390fdfe6164643a20696e76616c6964206465706f7369742066656520626173697320706f696e74734f776e61626c653a206e6577206f776e657220697320746865207a65726f2061646472657373736166654e61746976655472616e736665723a207472616e73666572206661696c6564416464726573733a20696e73756666696369656e742062616c616e636520666f722063616c6c536166654d6174683a206d756c7469706c69636174696f6e206f766572666c6f777365743a20696e76616c6964206465706f7369742066656520626173697320706f696e74734f776e61626c653a2063616c6c6572206973206e6f7420746865206f776e65725361666545524332303a204552433230206f7065726174696f6e20646964206e6f742073756363656564a2646970667358221220e10aee174321386bd7b6ad663d43d08670230d556cfbc17baf3dc37a88f0679264736f6c634300060c0033536166654d6174683a206d756c7469706c69636174696f6e206f766572666c6f77",
  "devdoc": {
    "kind": "dev",
    "methods": {
      "owner()": {
        "details": "Returns the address of the current owner."
      },
      "renounceOwnership()": {
        "details": "Leaves the contract without owner. It will not be possible to call `onlyOwner` functions anymore. Can only be called by the current owner. NOTE: Renouncing ownership will leave the contract without an owner, thereby removing any functionality that is only available to the owner."
      },
      "transferOwnership(address)": {
        "details": "Transfers ownership of the contract to a new account (`newOwner`). Can only be called by the current owner."
      }
    },
    "version": 1
  },
  "userdoc": {
    "kind": "user",
    "methods": {},
    "version": 1
  },
  "storageLayout": {
    "storage": [
      {
        "astId": 7,
        "contract": "contracts/HodlFarm.sol:HodlFarm",
        "label": "_owner",
        "offset": 0,
        "slot": "0",
        "type": "t_address"
      },
      {
        "astId": 2168,
        "contract": "contracts/HodlFarm.sol:HodlFarm",
        "label": "_status",
        "offset": 0,
        "slot": "1",
        "type": "t_uint256"
      },
      {
        "astId": 2232,
        "contract": "contracts/HodlFarm.sol:HodlFarm",
        "label": "native",
        "offset": 0,
        "slot": "2",
        "type": "t_address"
      },
      {
        "astId": 2234,
        "contract": "contracts/HodlFarm.sol:HodlFarm",
        "label": "nativeWallet",
        "offset": 0,
        "slot": "3",
        "type": "t_address"
      },
      {
        "astId": 2237,
        "contract": "contracts/HodlFarm.sol:HodlFarm",
        "label": "nativePerBlock",
        "offset": 0,
        "slot": "4",
        "type": "t_uint256"
      },
      {
        "astId": 2239,
        "contract": "contracts/HodlFarm.sol:HodlFarm",
        "label": "feeAddress",
        "offset": 0,
        "slot": "5",
        "type": "t_address"
      },
      {
        "astId": 2242,
        "contract": "contracts/HodlFarm.sol:HodlFarm",
        "label": "poolInfo",
        "offset": 0,
        "slot": "6",
        "type": "t_array(t_struct(PoolInfo)2230_storage)dyn_storage"
      },
      {
        "astId": 2248,
        "contract": "contracts/HodlFarm.sol:HodlFarm",
        "label": "userInfo",
        "offset": 0,
        "slot": "7",
        "type": "t_mapping(t_uint256,t_mapping(t_address,t_struct(UserInfo)2219_storage))"
      },
      {
        "astId": 2252,
        "contract": "contracts/HodlFarm.sol:HodlFarm",
        "label": "memberInfo",
        "offset": 0,
        "slot": "8",
        "type": "t_mapping(t_address,t_bool)"
      },
      {
        "astId": 2255,
        "contract": "contracts/HodlFarm.sol:HodlFarm",
        "label": "totalAllocPoint",
        "offset": 0,
        "slot": "9",
        "type": "t_uint256"
      },
      {
        "astId": 2257,
        "contract": "contracts/HodlFarm.sol:HodlFarm",
        "label": "startBlock",
        "offset": 0,
        "slot": "10",
        "type": "t_uint256"
      },
      {
        "astId": 2259,
        "contract": "contracts/HodlFarm.sol:HodlFarm",
        "label": "endBlock",
        "offset": 0,
        "slot": "11",
        "type": "t_uint256"
      },
      {
        "astId": 2262,
        "contract": "contracts/HodlFarm.sol:HodlFarm",
        "label": "blocksPerDay",
        "offset": 0,
        "slot": "12",
        "type": "t_uint256"
      }
    ],
    "types": {
      "t_address": {
        "encoding": "inplace",
        "label": "address",
        "numberOfBytes": "20"
      },
      "t_array(t_struct(PoolInfo)2230_storage)dyn_storage": {
        "base": "t_struct(PoolInfo)2230_storage",
        "encoding": "dynamic_array",
        "label": "struct HodlFarm.PoolInfo[]",
        "numberOfBytes": "32"
      },
      "t_bool": {
        "encoding": "inplace",
        "label": "bool",
        "numberOfBytes": "1"
      },
      "t_contract(IERC20)1133": {
        "encoding": "inplace",
        "label": "contract IERC20",
        "numberOfBytes": "20"
      },
      "t_mapping(t_address,t_bool)": {
        "encoding": "mapping",
        "key": "t_address",
        "label": "mapping(address => bool)",
        "numberOfBytes": "32",
        "value": "t_bool"
      },
      "t_mapping(t_address,t_struct(UserInfo)2219_storage)": {
        "encoding": "mapping",
        "key": "t_address",
        "label": "mapping(address => struct HodlFarm.UserInfo)",
        "numberOfBytes": "32",
        "value": "t_struct(UserInfo)2219_storage"
      },
      "t_mapping(t_uint256,t_mapping(t_address,t_struct(UserInfo)2219_storage))": {
        "encoding": "mapping",
        "key": "t_uint256",
        "label": "mapping(uint256 => mapping(address => struct HodlFarm.UserInfo))",
        "numberOfBytes": "32",
        "value": "t_mapping(t_address,t_struct(UserInfo)2219_storage)"
      },
      "t_struct(PoolInfo)2230_storage": {
        "encoding": "inplace",
        "label": "struct HodlFarm.PoolInfo",
        "members": [
          {
            "astId": 2221,
            "contract": "contracts/HodlFarm.sol:HodlFarm",
            "label": "lpToken",
            "offset": 0,
            "slot": "0",
            "type": "t_contract(IERC20)1133"
          },
          {
            "astId": 2223,
            "contract": "contracts/HodlFarm.sol:HodlFarm",
            "label": "allocPoint",
            "offset": 0,
            "slot": "1",
            "type": "t_uint256"
          },
          {
            "astId": 2225,
            "contract": "contracts/HodlFarm.sol:HodlFarm",
            "label": "lastRewardBlock",
            "offset": 0,
            "slot": "2",
            "type": "t_uint256"
          },
          {
            "astId": 2227,
            "contract": "contracts/HodlFarm.sol:HodlFarm",
            "label": "accNativePerShare",
            "offset": 0,
            "slot": "3",
            "type": "t_uint256"
          },
          {
            "astId": 2229,
            "contract": "contracts/HodlFarm.sol:HodlFarm",
            "label": "depositFeeBP",
            "offset": 0,
            "slot": "4",
            "type": "t_uint16"
          }
        ],
        "numberOfBytes": "160"
      },
      "t_struct(UserInfo)2219_storage": {
        "encoding": "inplace",
        "label": "struct HodlFarm.UserInfo",
        "members": [
          {
            "astId": 2216,
            "contract": "contracts/HodlFarm.sol:HodlFarm",
            "label": "amount",
            "offset": 0,
            "slot": "0",
            "type": "t_uint256"
          },
          {
            "astId": 2218,
            "contract": "contracts/HodlFarm.sol:HodlFarm",
            "label": "rewardDebt",
            "offset": 0,
            "slot": "1",
            "type": "t_uint256"
          }
        ],
        "numberOfBytes": "64"
      },
      "t_uint16": {
        "encoding": "inplace",
        "label": "uint16",
        "numberOfBytes": "2"
      },
      "t_uint256": {
        "encoding": "inplace",
        "label": "uint256",
        "numberOfBytes": "32"
      }
    }
  }
}